S00B00004932432E737265635B
S11300000C94FD000C941A010C941A010C941A011E
S11300100C941A010C941A010C941A010C941A01F0
S11300200C941A010C941A010C941A010C941A01E0
S11300300C941A010C941A010C941A010C941A01D0
S11300400C941A010C941A010C941A010C941A01C0
S11300500C941A010C941A010C941A010C941A01B0
S11300600C94BC020C941A01D403D803D803D8030B
S1130070D803D803D803D803DC02D803D803D803A1
S1130080D803D803D803D803DC02D803D803D80391
S1130090D803D803D803D803E402D803D803D80379
S11300A0D803D803D803D8030A03D803D803D80342
S11300B0D803D803D803D803E402D803D803D80359
S11300C0D803D803D803D8031003D803D803D8031C
S11300D0D803D803D803D8031603D803D803D80306
S11300E0D803D803D803D8032803D803D803D803E4
S11300F0D803D803D803D8035203D803D803D803AA
S1130100D803D803D803D8031C03D803D803D803CF
S1130110D803D803D803D8033603D803D803D803A5
S1130120D803D803D803D8035503D803D803D80376
S1130130D803D803D803D8035503D803D803D80366
S1130140D803D803D803D8035503D803D803D80356
S1130150D803D803D803D8035503D803D803D80346
S1130160D803D803D803D8035E03D803D803D8032D
S1130170D803D803D803D8039603D803D803D803E5
S1130180D803D803D803D8035E03D803D803D8030D
S1130190D803D803D803D8039603D803D803D803C5
S11301A0D803D803D803D8037A03D803D803D803D1
S11301B0D803D803D803D8039A03D803D803D803A1
S11301C0D803D803D803D8039A03D803D803D80391
S11301D0D803D803D803D803B103D803D803D8036A
S11301E0D803D803D803D803CE03D803D803D8033D
S11301F0D803D803D803D803CE0311241FBECFEFEE
S1130200D8E0DEBFCDBF11E0A0E0B1E0E8EAFAE05B
S113021002C005900D92A031B107D9F722E0A0E108
S1130220B1E001C01D92AB30B207E1F70E947A0140
S11302300C9452050C940000CF93DF93D82FC62F53
S113024083E50E9483048D2F0E94AA048C2F0E94B0
S1130250AA040E94A604DF91CF9108950F931F93DF
S1130260CF93DF93D82FC62F042F152F83E50E9439
S113027083048D2F0E94AA040E94A60483E50E9491
S113028083046C2F83E50E942305C02FD12F03C064
S11302900E94380589930E943005892BC9F70E9472
S11302A0A604DF91CF911F910F910895CF93DF930F
S11302B048E151E061E070E0809101010E942E016B
S11302C049E151E061E070E0809100010E942E015B
S11302D0C0911901D0E0DC2FCC2780911801C82BE4
S11302E084E091E00E9402048C2F0E941804DF91A4
S11302F0CF9108950E94700478940E94E90388E0E5
S113030091E00E94020461E0809102010E941C01BC
S113031068E0809103010E941C010E9456012FEFA6
S113032089E698E1215080409040E1F700C0000048
S1130330F4CF10921F0181E0809365011092A60111
S113034088B1806388B9E9EBF0E080818E7F808397
S113035080818D7F808388E48093B80085E48093D6
S1130360BC000895413208F050C090911F019111D2
S1130370FCCF31E030931F01209365012FEF2093D0
S113038063011092C701240F209320013093CA0106
S11303902091CA01880F822B8093CA018091A60103
S11303A0813081F41092A601ABEBB0E0ECEBF0E00D
S11303B08091CA018C93808183FDFACF85EC809370
S11303C0BC0003C085EE8093BC0080911F01813086
S11303D0E1F38091C701841710F44091C7014423CD
S11303E0A9F0E62FF72F6FEF640F70E06F5F7F4F78
S11303F080E090E0DC01A955BE4F2C912193019639
S113040086179707B9F7942F01C090E0892F0895B4
S11304100F93CF93DF93413208F05BC030911F01FB
S11304203111FCCF92E090931F01009365019FEF7F
S1130430909363011092C70140932001442391F0EB
S1130440EB01415050E04F5F5F4F460F571FFB01D8
S1130450DF01AC1BBD0B9191A955BE4F9C93E417D2
S1130460F507B1F71092CA019091CA01880F892B40
S11304708093CA018091A601813081F41092A60173
S1130480ABEBB0E0ECEBF0E08091CA018C9380819F
S113049083FDFACF85EC8093BC0003C085EE809386
S11304A0BC00222341F080911F01823021F480910D
S11304B01F018230E1F3809163018F3F79F08091D5
S11304C06301803241F080916301803331F034E084
S11304D005C031E003C032E001C033E0832FDF9177
S11304E0CF910F91089540916401262F30E0240F9D
S11304F0311D213231050CF520911F012430F9F40E
S11305006623A1F0A82FB92F80E090E02091640128
S1130510FC01E20FF11D2D9130E0EE0FFF1FEA59AF
S1130520FE4F318320830196861780F38091640106
S1130530680F6093640180E0089581E0089582E08B
S1130540089590931E0180931D0108959093C9010D
S11305508093C801089585ED8093BC00ECEBF0E036
S1130560808184FDFDCF10921F01089585EC809356
S1130570BC0010921F0108951F920F920FB60F92A4
S113058011242F933F934F935F936F937F938F9394
S11305909F93AF93BF93EF93FF938091B900E82F9C
S11305A0E87F8E2F90E0893C910508F001C1FC01A1
S11305B0EC5CFF4F0C944C058091CA018093BB0006
S11305C085EC8093BC00F4C09091C7018091200118
S11305D0981780F4E091C70181E08E0F8093C701E2
S11305E0F0E0E955FE4F80818093BB0085EC809359
S11305F0BC00DEC080916501882319F00E94AB0223
S1130600D7C081E08093A60184EA8093BC00109255
S11306101F01CEC080E2809363010E94AB02C8C078
S113062080E3809363010E94AB02C2C088E380939D
S113063063010E94B602BCC0E091C70181E08E0F45
S11306408093C701F0E08091BB00E955FE4F8083A1
S11306509091C70180912001981720F485EC809334
S1130660BC00A6C085E88093BC00A2C0E091C7018D
S113067081E08E0F8093C701F0E08091BB00E955C3
S1130680FE4F808380916501882319F00E94AB029C
S11306908FC081E08093A60184EA8093BC0010920D
S11306A01F0186C00E94AB0283C083E080931F01B8
S11306B01092620185EC8093BC007AC08091620143
S11306C08032A0F4E091620181E08E0F8093620198
S11306D0F0E08091BB0090E0EE0FFF1FEF5DFE4F56
S11306E09183808385EC8093BC0062C085E880930D
S11306F0BC005EC00E94B60280916201803248F460
S1130700E0916201F0E0EE0FFF1FEF5DFE4F1182FA
S113071010826091620170E0E0911D01F0911E0170
S113072081E291E009951092620142C085E88093CC
S1130730BC003EC084E080931F01109261011092BE
S11307406401E091C801F091C901099580916401A7
S1130750811107C081E080936401109267011092B7
S11307606601E091610181E08E0F80936101F0E008
S1130770EE0FFF1FEA59FE4F808191818093BB00E9
S11307809091610180916401981720F485EC809325
S1130790BC000EC085E88093BC000AC085EC809341
S11307A0BC0010921F0104C0109263010E94AB02AE
S11307B0FF91EF91BF91AF919F918F917F916F9135
S11307C05F914F913F912F910F900FBE0F901F900B
S11307D018951092C50087E68093C400E0ECF0E021
S11307E080818D7F808388E18093C10086E080933F
S11307F0C2000895E0ECF0E0908195FFFDCF809376
S1130800C60008950F931F93CF93FC018081882322
S113081059F08F01C0E00E94FA03CF5FF801EC0F9A
S1130820F11D80818111F7CFCF911F910F91089510
S11308301F93CF93DF931F92CDB7DEB7898317E061
S1130840898190E0012E02C0959587950A94E2F77C
S113085080FF04C081E30E94FA0303C080E30E9486
S1130860FA03115068F70F90DF91CF911F9108950B
S1130870CF93DF93EC01E0911B01F0911C013097C1
S113088001F190911501809114019817D0F016167A
S113089017068CF420E030E090E0DE01A90FB11DD2
S11308A04C91D901A553BE4F4C939F5F292F30E043
S11308B02617370794F3CB011092150160931401A6
S11308C00995DF91CF910895E0911601F0911701F8
S11308D0309729F010921201109211010995089590
S11308E0109215011092140110921201109211012C
S11308F00E94990184E694E00E94A60288E394E0B1
S11309000E94A102089591E0909310018093130135
S1130910109212011092110108950F931F93082F42
S113092010E04091110150E08091130121E030E08A
S11309306BEE71E090E00E94080210921201109296
S11309401101109210011F910F91089581E00E94EE
S11309508D040895CF93DF931F92CDB7DEB78983BB
S1130960809110018823A1F0809111018032C8F494
S113097080911201E82FF0E0E551FE4F99819083B8
S11309808F5F809312018093110181E090E00BC08E
S113099061E070E0CE0101960E94730281E090E074
S11309A002C080E090E00F90DF91CF9108958F9284
S11309B09F92AF92BF92EF920F931F93CF93DF93C7
S11309C0182FD62F49015A01002309F10E948304EC
S11309D0043008F003E0CFEFC00F0023A9F08C2F00
S11309E0880F880F880FA501940104C05695479578
S11309F0379527958A95D2F7DA01C9010E94AA048E
S1130A008C2FC1508111EBCF80E00E948D042E2DDC
S1130A1030E06D2FD13208F060E2462F50E06BECED
S1130A2071E0812F90E00E94B20110921501809331
S1130A301401DF91CF911F910F91EF90BF90AF9070
S1130A409F908F900895EF920F93EE24E39400E02B
S1130A5020E030E0A9010E94D7040F91EF9008959F
S1130A608091140190E020911501821B9109089551
S1130A709091150180911401981750F4E92FF0E03A
S1130A80E553FE4F208130E09F5F9093150102C033
S1130A902FEF3FEFC9010895EE0FFF1F0590F4916A
S10B0AA0E02D0994F894FFCF46
S1130AA83332312D783A2000696E6974200A0000C7
S9030000FC
