S01700004763634170706C69636174696F6E312E737265635B
S11300000C94FD000C940F010C940F010C940F013F
S11300100C940F010C940F010C940F010C940F011C
S11300200C940F010C940F010C940F010C940F010C
S11300300C940F010C940F010C940F010C940F01FC
S11300400C940F010C940F010C940F010C940F01EC
S11300500C940F010C940F010C940F010C940F01DC
S11300600C94EF010C940F0107030B030B030B0318
S11300700B030B030B030B030F020B030B030B0309
S11300800B030B030B030B030F020B030B030B03F9
S11300900B030B030B030B0317020B030B030B03E1
S11300A00B030B030B030B033D020B030B030B03AB
S11300B00B030B030B030B0317020B030B030B03C1
S11300C00B030B030B030B0343020B030B030B0385
S11300D00B030B030B030B0349020B030B030B036F
S11300E00B030B030B030B035B020B030B030B034D
S11300F00B030B030B030B0385020B030B030B0313
S11301000B030B030B030B034F020B030B030B0338
S11301100B030B030B030B0369020B030B030B030E
S11301200B030B030B030B0388020B030B030B03DF
S11301300B030B030B030B0388020B030B030B03CF
S11301400B030B030B030B0388020B030B030B03BF
S11301500B030B030B030B0388020B030B030B03AF
S11301600B030B030B030B0391020B030B030B0396
S11301700B030B030B030B03C9020B030B030B034E
S11301800B030B030B030B0391020B030B030B0376
S11301900B030B030B030B03C9020B030B030B032E
S11301A00B030B030B030B03AD020B030B030B033A
S11301B00B030B030B030B03CD020B030B030B030A
S11301C00B030B030B030B03CD020B030B030B03FA
S11301D00B030B030B030B03E4020B030B030B03D3
S11301E00B030B030B030B0301030B030B030B03A5
S11301F00B030B030B030B03010311241FBECFEFEF
S1130200D8E0DEBFCDBF21E0A0E0B1E001C01D9287
S1130210A83FB207E1F70E9411010C94D2030C9499
S1130220000088B18F7C88B90E94650378940E948D
S11302301C0387E20E94780389E70E949F030E94BF
S11302409B03FFCF10920C0181E080935201109226
S1130250930188B1806388B9E9EBF0E080818E7FF7
S1130260808380818D7F808388E48093B80085E4D7
S11302708093BC0008950F93CF93DF93413208F02D
S11302805BC030910C013111FCCF92E090930C01D2
S1130290009352019FEF909350011092B401409348
S11302A00D01442391F0EB01415050E04F5F5F4F4B
S11302B0460F571FFB01DF01AC1BBD0B9191AC56E0
S11302C0BE4F9C93E417F507B1F71092B7019091D4
S11302D0B701880F892B8093B701809193018130F6
S11302E081F410929301ABEBB0E0ECEBF0E0809181
S11302F0B7018C93808183FDFACF85EC8093BC0099
S113030003C085EE8093BC00222341F080910C0150
S1130310823021F480910C018230E1F3809150010C
S11303208F3F79F080915001803241F080915001EB
S1130330803331F034E005C031E003C032E001C065
S113034033E0832FDF91CF910F91089540915101B4
S1130350262F30E0240F311D213231050CF5209178
S11303600C012430F9F46623A1F0A82FB92F80E002
S113037090E020915101FC01E20FF11D2D9130E03C
S1130380EE0FFF1FED5AFE4F31832083019686172F
S113039080F380915101680F6093510180E00895CA
S11303A081E0089582E0089590930B0180930A01FF
S11303B008959093B6018093B501089585ED8093D7
S11303C0BC00ECEBF0E0808184FDFDCF10920C01C9
S11303D0089585EC8093BC0010920C0108951F923F
S11303E00F920FB60F9211242F933F934F935F9365
S11303F06F937F938F939F93AF93BF93EF93FF93E9
S11304008091B900E82FE87F8E2F90E0893C910518
S113041008F001C1FC01EC5CFF4F0C94CC0380910B
S1130420B7018093BB0085EC8093BC00F4C090912D
S1130430B40180910D01981780F4E091B40181E03A
S11304408E0F8093B401F0E0EC56FE4F80818093D0
S1130450BB0085EC8093BC00DEC0809152018823F0
S113046019F00E94DE01D7C081E08093930184EAF1
S11304708093BC0010920C01CEC080E280935001A6
S11304800E94DE01C8C080E3809350010E94DE0117
S1130490C2C088E3809350010E94E901BCC0E0918E
S11304A0B40181E08E0F8093B401F0E08091BB0031
S11304B0EC56FE4F80839091B40180910D01981702
S11304C020F485EC8093BC00A6C085E88093BC0032
S11304D0A2C0E091B40181E08E0F8093B401F0E0FA
S11304E08091BB00EC56FE4F80838091520188239B
S11304F019F00E94DE018FC081E08093930184EAA9
S11305008093BC0010920C0186C00E94DE0183C05F
S113051083E080930C0110924F0185EC8093BC0022
S11305207AC080914F018032A0F4E0914F0181E0C4
S11305308E0F80934F01F0E08091BB0090E0EE0FAE
S1130540FF1FE25FFE4F9183808385EC8093BC00A4
S113055062C085E88093BC005EC00E94E90180917E
S11305604F01803248F4E0914F01F0E0EE0FFF1F9D
S1130570E25FFE4F1182108260914F0170E0E091C2
S11305800A01F0910B018EE091E0099510924F0160
S113059042C085E88093BC003EC084E080930C0197
S11305A010924E0110925101E091B501F091B60103
S11305B0099580915101811107C081E08093510117
S11305C01092540110925301E0914E0181E08E0F7C
S11305D080934E01F0E0EE0FFF1FED5AFE4F808135
S11305E091818093BB0090914E01809151019817A5
S11305F020F485EC8093BC000EC085E88093BC0099
S11306000AC085EC8093BC0010920C0104C01092C7
S113061050010E94DE01FF91EF91BF91AF919F9134
S11306208F917F916F915F914F913F912F910F9097
S11306300FBE0F901F9018951092C50087E6809307
S1130640C400E0ECF0E080818D7F808388E18093BA
S1130650C10086E08093C2000895CF93DF93EC013C
S1130660E0910801F0910901309701F190910501A1
S1130670809104019817D0F0161617068CF420E028
S113068030E090E0DE01A90FB11D4C91D901A854CE
S1130690BE4F4C939F5F292F30E02617370794F302
S11306A0CB0110920501609304010995DF91CF916C
S11306B00895E0910601F0910701309729F0109216
S11306C002011092010109950895109205011092FA
S11306D0040110920201109201010E94220189E595
S11306E093E00E94D9018DE293E00E94D401089521
S11306F091E0909300018093030110920201109203
S1130700010108950F931F93082F10E040910101F8
S113071050E08091030121E030E068ED71E090E069
S11307200E943B01109202011092010110920001FB
S11307301F910F91089581E00E9482030895CF9341
S1130740DF931F92CDB7DEB78983809100018823A0
S1130750A1F0809101018032C8F480910201E82F58
S1130760F0E0E852FE4F998190838F5F80930201FD
S11307708093010181E090E00BC061E070E0CE0164
S113078001960E94A60181E090E002C080E090E022
S11307900F90DF91CF910895EE0FFF1F0590F49114
S10B07A0E02D0994F894FFCF49
S9030000FC
